{
  "contractName": "CoolPunks",
  "abi": [
    {
      "inputs": [
        {
          "internalType": "string",
          "name": "_name",
          "type": "string"
        },
        {
          "internalType": "string",
          "name": "_symbol",
          "type": "string"
        },
        {
          "internalType": "string",
          "name": "_initBaseURI",
          "type": "string"
        }
      ],
      "stateMutability": "nonpayable",
      "type": "constructor"
    },
    {
      "anonymous": false,
      "inputs": [
        {
          "indexed": true,
          "internalType": "address",
          "name": "owner",
          "type": "address"
        },
        {
          "indexed": true,
          "internalType": "address",
          "name": "approved",
          "type": "address"
        },
        {
          "indexed": true,
          "internalType": "uint256",
          "name": "tokenId",
          "type": "uint256"
        }
      ],
      "name": "Approval",
      "type": "event"
    },
    {
      "anonymous": false,
      "inputs": [
        {
          "indexed": true,
          "internalType": "address",
          "name": "owner",
          "type": "address"
        },
        {
          "indexed": true,
          "internalType": "address",
          "name": "operator",
          "type": "address"
        },
        {
          "indexed": false,
          "internalType": "bool",
          "name": "approved",
          "type": "bool"
        }
      ],
      "name": "ApprovalForAll",
      "type": "event"
    },
    {
      "anonymous": false,
      "inputs": [
        {
          "indexed": true,
          "internalType": "address",
          "name": "previousOwner",
          "type": "address"
        },
        {
          "indexed": true,
          "internalType": "address",
          "name": "newOwner",
          "type": "address"
        }
      ],
      "name": "OwnershipTransferred",
      "type": "event"
    },
    {
      "anonymous": false,
      "inputs": [
        {
          "indexed": true,
          "internalType": "address",
          "name": "from",
          "type": "address"
        },
        {
          "indexed": true,
          "internalType": "address",
          "name": "to",
          "type": "address"
        },
        {
          "indexed": true,
          "internalType": "uint256",
          "name": "tokenId",
          "type": "uint256"
        }
      ],
      "name": "Transfer",
      "type": "event"
    },
    {
      "inputs": [],
      "name": "MAX_SUPPLY",
      "outputs": [
        {
          "internalType": "uint256",
          "name": "",
          "type": "uint256"
        }
      ],
      "stateMutability": "view",
      "type": "function",
      "constant": true
    },
    {
      "inputs": [
        {
          "internalType": "address",
          "name": "to",
          "type": "address"
        },
        {
          "internalType": "uint256",
          "name": "tokenId",
          "type": "uint256"
        }
      ],
      "name": "approve",
      "outputs": [],
      "stateMutability": "nonpayable",
      "type": "function"
    },
    {
      "inputs": [
        {
          "internalType": "address",
          "name": "owner",
          "type": "address"
        }
      ],
      "name": "balanceOf",
      "outputs": [
        {
          "internalType": "uint256",
          "name": "",
          "type": "uint256"
        }
      ],
      "stateMutability": "view",
      "type": "function",
      "constant": true
    },
    {
      "inputs": [],
      "name": "baseExtension",
      "outputs": [
        {
          "internalType": "string",
          "name": "",
          "type": "string"
        }
      ],
      "stateMutability": "view",
      "type": "function",
      "constant": true
    },
    {
      "inputs": [
        {
          "internalType": "uint256",
          "name": "tokenId",
          "type": "uint256"
        }
      ],
      "name": "getApproved",
      "outputs": [
        {
          "internalType": "address",
          "name": "",
          "type": "address"
        }
      ],
      "stateMutability": "view",
      "type": "function",
      "constant": true
    },
    {
      "inputs": [
        {
          "internalType": "address",
          "name": "owner",
          "type": "address"
        },
        {
          "internalType": "address",
          "name": "operator",
          "type": "address"
        }
      ],
      "name": "isApprovedForAll",
      "outputs": [
        {
          "internalType": "bool",
          "name": "",
          "type": "bool"
        }
      ],
      "stateMutability": "view",
      "type": "function",
      "constant": true
    },
    {
      "inputs": [],
      "name": "name",
      "outputs": [
        {
          "internalType": "string",
          "name": "",
          "type": "string"
        }
      ],
      "stateMutability": "view",
      "type": "function",
      "constant": true
    },
    {
      "inputs": [],
      "name": "owner",
      "outputs": [
        {
          "internalType": "address",
          "name": "",
          "type": "address"
        }
      ],
      "stateMutability": "view",
      "type": "function",
      "constant": true
    },
    {
      "inputs": [
        {
          "internalType": "uint256",
          "name": "tokenId",
          "type": "uint256"
        }
      ],
      "name": "ownerOf",
      "outputs": [
        {
          "internalType": "address",
          "name": "",
          "type": "address"
        }
      ],
      "stateMutability": "view",
      "type": "function",
      "constant": true
    },
    {
      "inputs": [],
      "name": "paused",
      "outputs": [
        {
          "internalType": "bool",
          "name": "",
          "type": "bool"
        }
      ],
      "stateMutability": "view",
      "type": "function",
      "constant": true
    },
    {
      "inputs": [],
      "name": "renounceOwnership",
      "outputs": [],
      "stateMutability": "nonpayable",
      "type": "function"
    },
    {
      "inputs": [
        {
          "internalType": "address",
          "name": "from",
          "type": "address"
        },
        {
          "internalType": "address",
          "name": "to",
          "type": "address"
        },
        {
          "internalType": "uint256",
          "name": "tokenId",
          "type": "uint256"
        }
      ],
      "name": "safeTransferFrom",
      "outputs": [],
      "stateMutability": "nonpayable",
      "type": "function"
    },
    {
      "inputs": [
        {
          "internalType": "address",
          "name": "from",
          "type": "address"
        },
        {
          "internalType": "address",
          "name": "to",
          "type": "address"
        },
        {
          "internalType": "uint256",
          "name": "tokenId",
          "type": "uint256"
        },
        {
          "internalType": "bytes",
          "name": "_data",
          "type": "bytes"
        }
      ],
      "name": "safeTransferFrom",
      "outputs": [],
      "stateMutability": "nonpayable",
      "type": "function"
    },
    {
      "inputs": [
        {
          "internalType": "address",
          "name": "operator",
          "type": "address"
        },
        {
          "internalType": "bool",
          "name": "approved",
          "type": "bool"
        }
      ],
      "name": "setApprovalForAll",
      "outputs": [],
      "stateMutability": "nonpayable",
      "type": "function"
    },
    {
      "inputs": [
        {
          "internalType": "bytes4",
          "name": "interfaceId",
          "type": "bytes4"
        }
      ],
      "name": "supportsInterface",
      "outputs": [
        {
          "internalType": "bool",
          "name": "",
          "type": "bool"
        }
      ],
      "stateMutability": "view",
      "type": "function",
      "constant": true
    },
    {
      "inputs": [],
      "name": "symbol",
      "outputs": [
        {
          "internalType": "string",
          "name": "",
          "type": "string"
        }
      ],
      "stateMutability": "view",
      "type": "function",
      "constant": true
    },
    {
      "inputs": [
        {
          "internalType": "address",
          "name": "from",
          "type": "address"
        },
        {
          "internalType": "address",
          "name": "to",
          "type": "address"
        },
        {
          "internalType": "uint256",
          "name": "tokenId",
          "type": "uint256"
        }
      ],
      "name": "transferFrom",
      "outputs": [],
      "stateMutability": "nonpayable",
      "type": "function"
    },
    {
      "inputs": [
        {
          "internalType": "address",
          "name": "newOwner",
          "type": "address"
        }
      ],
      "name": "transferOwnership",
      "outputs": [],
      "stateMutability": "nonpayable",
      "type": "function"
    },
    {
      "inputs": [],
      "name": "MintIndex",
      "outputs": [
        {
          "internalType": "uint256",
          "name": "index",
          "type": "uint256"
        }
      ],
      "stateMutability": "view",
      "type": "function",
      "constant": true
    },
    {
      "inputs": [],
      "name": "remainingSupply",
      "outputs": [
        {
          "internalType": "uint256",
          "name": "",
          "type": "uint256"
        }
      ],
      "stateMutability": "view",
      "type": "function",
      "constant": true
    },
    {
      "inputs": [],
      "name": "tokenSupply",
      "outputs": [
        {
          "internalType": "uint256",
          "name": "",
          "type": "uint256"
        }
      ],
      "stateMutability": "view",
      "type": "function",
      "constant": true
    },
    {
      "inputs": [],
      "name": "Price",
      "outputs": [
        {
          "internalType": "uint256",
          "name": "_cost",
          "type": "uint256"
        }
      ],
      "stateMutability": "view",
      "type": "function",
      "constant": true
    },
    {
      "inputs": [],
      "name": "MaxMintAmount",
      "outputs": [
        {
          "internalType": "uint256",
          "name": "_maxMintAmount",
          "type": "uint256"
        }
      ],
      "stateMutability": "pure",
      "type": "function",
      "constant": true
    },
    {
      "inputs": [
        {
          "internalType": "uint256",
          "name": "_mintAmount",
          "type": "uint256"
        }
      ],
      "name": "MintCoolPunks",
      "outputs": [],
      "stateMutability": "payable",
      "type": "function",
      "payable": true
    },
    {
      "inputs": [
        {
          "internalType": "uint256",
          "name": "tokenId",
          "type": "uint256"
        }
      ],
      "name": "tokenURI",
      "outputs": [
        {
          "internalType": "string",
          "name": "",
          "type": "string"
        }
      ],
      "stateMutability": "view",
      "type": "function",
      "constant": true
    },
    {
      "inputs": [
        {
          "internalType": "string",
          "name": "_newBaseURI",
          "type": "string"
        }
      ],
      "name": "setBaseURI",
      "outputs": [],
      "stateMutability": "nonpayable",
      "type": "function"
    },
    {
      "inputs": [
        {
          "internalType": "bool",
          "name": "_state",
          "type": "bool"
        }
      ],
      "name": "pause",
      "outputs": [],
      "stateMutability": "nonpayable",
      "type": "function"
    },
    {
      "inputs": [],
      "name": "withdraw",
      "outputs": [],
      "stateMutability": "payable",
      "type": "function",
      "payable": true
    }
  ],
  "bytecode": "0x60c06040526005608081905264173539b7b760d91b60a0908152620000289160099190620004d4565b50600a805460ff191660011790553480156200004357600080fd5b506040516200266538038062002665833981016040819052620000669162000654565b8251839083906200007f906000906020850190620004d4565b50805162000095906001906020840190620004d4565b505050620000b2620000ac620000fd60201b60201c565b62000101565b8051620000c7906008906020840190620004d4565b50620000dd33620000d762000153565b6200017e565b620000f46007620001a460201b62000f661760201c565b505050620007d2565b3390565b600680546001600160a01b038381166001600160a01b0319831681179093556040519116919082907f8be0079c531659141344cd1fd0a4f28419497f9722a3daafe3b4186f6b6457e090600090a35050565b60006200016c6007620001ad60201b62000f6f1760201c565b62000179906001620006e5565b905090565b620001a0828260405180602001604052806000815250620001b160201b60201c565b5050565b80546001019055565b5490565b620001bd83836200022d565b620001cc600084848462000375565b620002285760405162461bcd60e51b815260206004820152603260248201526000805160206200264583398151915260448201527131b2b4bb32b91034b6b83632b6b2b73a32b960711b60648201526084015b60405180910390fd5b505050565b6001600160a01b038216620002855760405162461bcd60e51b815260206004820181905260248201527f4552433732313a206d696e7420746f20746865207a65726f206164647265737360448201526064016200021f565b6000818152600260205260409020546001600160a01b031615620002ec5760405162461bcd60e51b815260206004820152601c60248201527f4552433732313a20746f6b656e20616c7265616479206d696e7465640000000060448201526064016200021f565b6001600160a01b038216600090815260036020526040812080546001929062000317908490620006e5565b909155505060008181526002602052604080822080546001600160a01b0319166001600160a01b03861690811790915590518392907fddf252ad1be2c89b69c2b068fc378daa952ba7f163c4a11628f55a4df523b3ef908290a45050565b600062000396846001600160a01b0316620004ce60201b62000f731760201c565b15620004c257604051630a85bd0160e11b81526001600160a01b0385169063150b7a0290620003d09033908990889088906004016200070c565b6020604051808303816000875af19250505080156200040e575060408051601f3d908101601f191682019092526200040b9181019062000762565b60015b620004a7573d8080156200043f576040519150601f19603f3d011682016040523d82523d6000602084013e62000444565b606091505b5080516200049f5760405162461bcd60e51b815260206004820152603260248201526000805160206200264583398151915260448201527131b2b4bb32b91034b6b83632b6b2b73a32b960711b60648201526084016200021f565b805181602001fd5b6001600160e01b031916630a85bd0160e11b149050620004c6565b5060015b949350505050565b3b151590565b828054620004e29062000795565b90600052602060002090601f01602090048101928262000506576000855562000551565b82601f106200052157805160ff191683800117855562000551565b8280016001018555821562000551579182015b828111156200055157825182559160200191906001019062000534565b506200055f92915062000563565b5090565b5b808211156200055f576000815560010162000564565b634e487b7160e01b600052604160045260246000fd5b60005b83811015620005ad57818101518382015260200162000593565b83811115620005bd576000848401525b50505050565b600082601f830112620005d557600080fd5b81516001600160401b0380821115620005f257620005f26200057a565b604051601f8301601f19908116603f011681019082821181831017156200061d576200061d6200057a565b816040528381528660208588010111156200063757600080fd5b6200064a84602083016020890162000590565b9695505050505050565b6000806000606084860312156200066a57600080fd5b83516001600160401b03808211156200068257600080fd5b6200069087838801620005c3565b94506020860151915080821115620006a757600080fd5b620006b587838801620005c3565b93506040860151915080821115620006cc57600080fd5b50620006db86828701620005c3565b9150509250925092565b600082198211156200070757634e487b7160e01b600052601160045260246000fd5b500190565b600060018060a01b0380871683528086166020840152508360408301526080606083015282518060808401526200074b8160a085016020870162000590565b601f01601f19169190910160a00195945050505050565b6000602082840312156200077557600080fd5b81516001600160e01b0319811681146200078e57600080fd5b9392505050565b600181811c90821680620007aa57607f821691505b60208210811415620007cc57634e487b7160e01b600052602260045260246000fd5b50919050565b611e6380620007e26000396000f3fe6080604052600436106101b75760003560e01c8063715018a6116100ec578063b88d4fde1161008a578063caeeffdb11610064578063caeeffdb14610482578063da0239a614610496578063e985e9c5146104ab578063f2fde38b146104f457600080fd5b8063b88d4fde1461042d578063c66828621461044d578063c87b56dd1461046257600080fd5b80638da5cb5b116100c65780638da5cb5b146103c557806395d89b41146103e35780639dfde201146103f8578063a22cb4651461040d57600080fd5b8063715018a6146103885780637824407f1461039d57806385e87570146103b257600080fd5b806332cb6b0c1161015957806355f804b31161013357806355f804b31461030e5780635c975abb1461032e5780636352211e1461034857806370a082311461036857600080fd5b806332cb6b0c146102d05780633ccfd60b146102e657806342842e0e146102ee57600080fd5b806306fdde031161019557806306fdde0314610236578063081812fc14610258578063095ea7b31461029057806323b872dd146102b057600080fd5b806301ffc9a7146101bc57806302329a29146101f157806304d88f9814610213575b600080fd5b3480156101c857600080fd5b506101dc6101d7366004611812565b610514565b60405190151581526020015b60405180910390f35b3480156101fd57600080fd5b5061021161020c366004611844565b610566565b005b34801561021f57600080fd5b506102286105ac565b6040519081526020016101e8565b34801561024257600080fd5b5061024b6105c7565b6040516101e891906118b7565b34801561026457600080fd5b506102786102733660046118ca565b610659565b6040516001600160a01b0390911681526020016101e8565b34801561029c57600080fd5b506102116102ab3660046118fa565b6106ee565b3480156102bc57600080fd5b506102116102cb366004611924565b610804565b3480156102dc57600080fd5b5061022861115c81565b610211610835565b3480156102fa57600080fd5b50610211610309366004611924565b6108d3565b34801561031a57600080fd5b506102116103293660046119ec565b6108ee565b34801561033a57600080fd5b50600a546101dc9060ff1681565b34801561035457600080fd5b506102786103633660046118ca565b61092f565b34801561037457600080fd5b50610228610383366004611a35565b6109a6565b34801561039457600080fd5b50610211610a2d565b3480156103a957600080fd5b50610228610a63565b6102116103c03660046118ca565b610a6e565b3480156103d157600080fd5b506006546001600160a01b0316610278565b3480156103ef57600080fd5b5061024b610cc9565b34801561040457600080fd5b50610228610cd8565b34801561041957600080fd5b50610211610428366004611a50565b610d09565b34801561043957600080fd5b50610211610448366004611a83565b610d14565b34801561045957600080fd5b5061024b610d4c565b34801561046e57600080fd5b5061024b61047d3660046118ca565b610dda565b34801561048e57600080fd5b50600a610228565b3480156104a257600080fd5b50610228610eb8565b3480156104b757600080fd5b506101dc6104c6366004611aff565b6001600160a01b03918216600090815260056020908152604080832093909416825291909152205460ff1690565b34801561050057600080fd5b5061021161050f366004611a35565b610ece565b60006001600160e01b031982166380ac58cd60e01b148061054557506001600160e01b03198216635b5e139f60e01b145b8061056057506301ffc9a760e01b6001600160e01b03198316145b92915050565b6006546001600160a01b031633146105995760405162461bcd60e51b815260040161059090611b29565b60405180910390fd5b600a805460ff1916911515919091179055565b60006105b760075490565b6105c2906001611b74565b905090565b6060600080546105d690611b8c565b80601f016020809104026020016040519081016040528092919081815260200182805461060290611b8c565b801561064f5780601f106106245761010080835404028352916020019161064f565b820191906000526020600020905b81548152906001019060200180831161063257829003601f168201915b5050505050905090565b6000818152600260205260408120546001600160a01b03166106d25760405162461bcd60e51b815260206004820152602c60248201527f4552433732313a20617070726f76656420717565727920666f72206e6f6e657860448201526b34b9ba32b73a103a37b5b2b760a11b6064820152608401610590565b506000908152600460205260409020546001600160a01b031690565b60006106f98261092f565b9050806001600160a01b0316836001600160a01b031614156107675760405162461bcd60e51b815260206004820152602160248201527f4552433732313a20617070726f76616c20746f2063757272656e74206f776e656044820152603960f91b6064820152608401610590565b336001600160a01b0382161480610783575061078381336104c6565b6107f55760405162461bcd60e51b815260206004820152603860248201527f4552433732313a20617070726f76652063616c6c6572206973206e6f74206f7760448201527f6e6572206e6f7220617070726f76656420666f7220616c6c00000000000000006064820152608401610590565b6107ff8383610f79565b505050565b61080e3382610fe7565b61082a5760405162461bcd60e51b815260040161059090611bc7565b6107ff8383836110de565b6006546001600160a01b0316331461085f5760405162461bcd60e51b815260040161059090611b29565b60006108736006546001600160a01b031690565b6001600160a01b03164760405160006040518083038185875af1925050503d80600081146108bd576040519150601f19603f3d011682016040523d82523d6000602084013e6108c2565b606091505b50509050806108d057600080fd5b50565b6107ff83838360405180602001604052806000815250610d14565b6006546001600160a01b031633146109185760405162461bcd60e51b815260040161059090611b29565b805161092b90600890602084019061176c565b5050565b6000818152600260205260408120546001600160a01b0316806105605760405162461bcd60e51b815260206004820152602960248201527f4552433732313a206f776e657220717565727920666f72206e6f6e657869737460448201526832b73a103a37b5b2b760b91b6064820152608401610590565b60006001600160a01b038216610a115760405162461bcd60e51b815260206004820152602a60248201527f4552433732313a2062616c616e636520717565727920666f7220746865207a65604482015269726f206164647265737360b01b6064820152608401610590565b506001600160a01b031660009081526003602052604090205490565b6006546001600160a01b03163314610a575760405162461bcd60e51b815260040161059090611b29565b610a61600061127e565b565b60006105c260075490565b6000610a786105ac565b600a5490915060ff1615610ac65760405162461bcd60e51b8152602060048201526015602482015274436f6f6c50756e6b7320617265207061757365642160581b6044820152606401610590565b60008211610b165760405162461bcd60e51b815260206004820152601a60248201527f43616e74206f72646572206e65676174697665206e756d6265720000000000006044820152606401610590565b61115c610b238383611b74565b1115610b805760405162461bcd60e51b815260206004820152602660248201527f54686973206f7264657220776f756c642065786365656420746865206d617820604482015265737570706c7960d01b6064820152608401610590565b600a821115610bf75760405162461bcd60e51b815260206004820152603860248201527f54686973206f726465722065786365656473206d6178206d696e7420616d6f7560448201527f6e7420666f72207468652063757272656e7420737461676500000000000000006064820152608401610590565b81610c00610cd8565b610c0a9190611c18565b341015610c8b5760405162461bcd60e51b815260206004820152604360248201527f54686973206f7264657220646f65736e2774206d65657420746865207072696360448201527f6520726571756972656d656e7420666f72207468652063757272656e7420737460648201526261676560e81b608482015260a401610590565b60005b828110156107ff57610ca933610ca48385611b74565b6112d0565b610cb7600780546001019055565b80610cc181611c37565b915050610c8e565b6060600180546105d690611b8c565b600080610ce3610a63565b90506101bc811015610cf757600091505090565b66470de4df82000091505090565b5090565b61092b3383836112ea565b610d1e3383610fe7565b610d3a5760405162461bcd60e51b815260040161059090611bc7565b610d46848484846113b9565b50505050565b60098054610d5990611b8c565b80601f0160208091040260200160405190810160405280929190818152602001828054610d8590611b8c565b8015610dd25780601f10610da757610100808354040283529160200191610dd2565b820191906000526020600020905b815481529060010190602001808311610db557829003601f168201915b505050505081565b6000818152600260205260409020546060906001600160a01b0316610e595760405162461bcd60e51b815260206004820152602f60248201527f4552433732314d657461646174613a2055524920717565727920666f72206e6f60448201526e3732bc34b9ba32b73a103a37b5b2b760891b6064820152608401610590565b6000610e636113ec565b90506000815111610e835760405180602001604052806000815250610eb1565b80610e8d846113fb565b6009604051602001610ea193929190611c52565b6040516020818303038152906040525b9392505050565b6000610ec2610a63565b6105c29061115c611d16565b6006546001600160a01b03163314610ef85760405162461bcd60e51b815260040161059090611b29565b6001600160a01b038116610f5d5760405162461bcd60e51b815260206004820152602660248201527f4f776e61626c653a206e6577206f776e657220697320746865207a65726f206160448201526564647265737360d01b6064820152608401610590565b6108d08161127e565b80546001019055565b5490565b3b151590565b600081815260046020526040902080546001600160a01b0319166001600160a01b0384169081179091558190610fae8261092f565b6001600160a01b03167f8c5be1e5ebec7d5bd14f71427d1e84f3dd0314c0f7b2291e5b200ac8c7c3b92560405160405180910390a45050565b6000818152600260205260408120546001600160a01b03166110605760405162461bcd60e51b815260206004820152602c60248201527f4552433732313a206f70657261746f7220717565727920666f72206e6f6e657860448201526b34b9ba32b73a103a37b5b2b760a11b6064820152608401610590565b600061106b8361092f565b9050806001600160a01b0316846001600160a01b031614806110a65750836001600160a01b031661109b84610659565b6001600160a01b0316145b806110d657506001600160a01b0380821660009081526005602090815260408083209388168352929052205460ff165b949350505050565b826001600160a01b03166110f18261092f565b6001600160a01b0316146111595760405162461bcd60e51b815260206004820152602960248201527f4552433732313a207472616e73666572206f6620746f6b656e2074686174206960448201526839903737ba1037bbb760b91b6064820152608401610590565b6001600160a01b0382166111bb5760405162461bcd60e51b8152602060048201526024808201527f4552433732313a207472616e7366657220746f20746865207a65726f206164646044820152637265737360e01b6064820152608401610590565b6111c6600082610f79565b6001600160a01b03831660009081526003602052604081208054600192906111ef908490611d16565b90915550506001600160a01b038216600090815260036020526040812080546001929061121d908490611b74565b909155505060008181526002602052604080822080546001600160a01b0319166001600160a01b0386811691821790925591518493918716917fddf252ad1be2c89b69c2b068fc378daa952ba7f163c4a11628f55a4df523b3ef91a4505050565b600680546001600160a01b038381166001600160a01b0319831681179093556040519116919082907f8be0079c531659141344cd1fd0a4f28419497f9722a3daafe3b4186f6b6457e090600090a35050565b61092b8282604051806020016040528060008152506114f9565b816001600160a01b0316836001600160a01b0316141561134c5760405162461bcd60e51b815260206004820152601960248201527f4552433732313a20617070726f766520746f2063616c6c6572000000000000006044820152606401610590565b6001600160a01b03838116600081815260056020908152604080832094871680845294825291829020805460ff191686151590811790915591519182527f17307eab39ab6107e8899845ad3d59bd9653f200f220920489ca2b5937696c31910160405180910390a3505050565b6113c48484846110de565b6113d08484848461152c565b610d465760405162461bcd60e51b815260040161059090611d2d565b6060600880546105d690611b8c565b60608161141f5750506040805180820190915260018152600360fc1b602082015290565b8160005b8115611449578061143381611c37565b91506114429050600a83611d95565b9150611423565b60008167ffffffffffffffff81111561146457611464611960565b6040519080825280601f01601f19166020018201604052801561148e576020820181803683370190505b5090505b84156110d6576114a3600183611d16565b91506114b0600a86611da9565b6114bb906030611b74565b60f81b8183815181106114d0576114d0611dbd565b60200101906001600160f81b031916908160001a9053506114f2600a86611d95565b9450611492565b611503838361162a565b611510600084848461152c565b6107ff5760405162461bcd60e51b815260040161059090611d2d565b60006001600160a01b0384163b1561161f57604051630a85bd0160e11b81526001600160a01b0385169063150b7a0290611570903390899088908890600401611dd3565b6020604051808303816000875af19250505080156115ab575060408051601f3d908101601f191682019092526115a891810190611e10565b60015b611605573d8080156115d9576040519150601f19603f3d011682016040523d82523d6000602084013e6115de565b606091505b5080516115fd5760405162461bcd60e51b815260040161059090611d2d565b805181602001fd5b6001600160e01b031916630a85bd0160e11b1490506110d6565b506001949350505050565b6001600160a01b0382166116805760405162461bcd60e51b815260206004820181905260248201527f4552433732313a206d696e7420746f20746865207a65726f20616464726573736044820152606401610590565b6000818152600260205260409020546001600160a01b0316156116e55760405162461bcd60e51b815260206004820152601c60248201527f4552433732313a20746f6b656e20616c7265616479206d696e746564000000006044820152606401610590565b6001600160a01b038216600090815260036020526040812080546001929061170e908490611b74565b909155505060008181526002602052604080822080546001600160a01b0319166001600160a01b03861690811790915590518392907fddf252ad1be2c89b69c2b068fc378daa952ba7f163c4a11628f55a4df523b3ef908290a45050565b82805461177890611b8c565b90600052602060002090601f01602090048101928261179a57600085556117e0565b82601f106117b357805160ff19168380011785556117e0565b828001600101855582156117e0579182015b828111156117e05782518255916020019190600101906117c5565b50610d059291505b80821115610d0557600081556001016117e8565b6001600160e01b0319811681146108d057600080fd5b60006020828403121561182457600080fd5b8135610eb1816117fc565b8035801515811461183f57600080fd5b919050565b60006020828403121561185657600080fd5b610eb18261182f565b60005b8381101561187a578181015183820152602001611862565b83811115610d465750506000910152565b600081518084526118a381602086016020860161185f565b601f01601f19169290920160200192915050565b602081526000610eb1602083018461188b565b6000602082840312156118dc57600080fd5b5035919050565b80356001600160a01b038116811461183f57600080fd5b6000806040838503121561190d57600080fd5b611916836118e3565b946020939093013593505050565b60008060006060848603121561193957600080fd5b611942846118e3565b9250611950602085016118e3565b9150604084013590509250925092565b634e487b7160e01b600052604160045260246000fd5b600067ffffffffffffffff8084111561199157611991611960565b604051601f8501601f19908116603f011681019082821181831017156119b9576119b9611960565b816040528093508581528686860111156119d257600080fd5b858560208301376000602087830101525050509392505050565b6000602082840312156119fe57600080fd5b813567ffffffffffffffff811115611a1557600080fd5b8201601f81018413611a2657600080fd5b6110d684823560208401611976565b600060208284031215611a4757600080fd5b610eb1826118e3565b60008060408385031215611a6357600080fd5b611a6c836118e3565b9150611a7a6020840161182f565b90509250929050565b60008060008060808587031215611a9957600080fd5b611aa2856118e3565b9350611ab0602086016118e3565b925060408501359150606085013567ffffffffffffffff811115611ad357600080fd5b8501601f81018713611ae457600080fd5b611af387823560208401611976565b91505092959194509250565b60008060408385031215611b1257600080fd5b611b1b836118e3565b9150611a7a602084016118e3565b6020808252818101527f4f776e61626c653a2063616c6c6572206973206e6f7420746865206f776e6572604082015260600190565b634e487b7160e01b600052601160045260246000fd5b60008219821115611b8757611b87611b5e565b500190565b600181811c90821680611ba057607f821691505b60208210811415611bc157634e487b7160e01b600052602260045260246000fd5b50919050565b60208082526031908201527f4552433732313a207472616e736665722063616c6c6572206973206e6f74206f6040820152701ddb995c881b9bdc88185c1c1c9bdd9959607a1b606082015260800190565b6000816000190483118215151615611c3257611c32611b5e565b500290565b6000600019821415611c4b57611c4b611b5e565b5060010190565b600084516020611c658285838a0161185f565b855191840191611c788184848a0161185f565b8554920191600090600181811c9080831680611c9557607f831692505b858310811415611cb357634e487b7160e01b85526022600452602485fd5b808015611cc75760018114611cd857611d05565b60ff19851688528388019550611d05565b60008b81526020902060005b85811015611cfd5781548a820152908401908801611ce4565b505083880195505b50939b9a5050505050505050505050565b600082821015611d2857611d28611b5e565b500390565b60208082526032908201527f4552433732313a207472616e7366657220746f206e6f6e20455243373231526560408201527131b2b4bb32b91034b6b83632b6b2b73a32b960711b606082015260800190565b634e487b7160e01b600052601260045260246000fd5b600082611da457611da4611d7f565b500490565b600082611db857611db8611d7f565b500690565b634e487b7160e01b600052603260045260246000fd5b6001600160a01b0385811682528416602082015260408101839052608060608201819052600090611e069083018461188b565b9695505050505050565b600060208284031215611e2257600080fd5b8151610eb1816117fc56fea2646970667358221220da80b1d1726fed213833d6108fd1b64633047432bd99b2e9d4adbed351fdde1c64736f6c634300080b00334552433732313a207472616e7366657220746f206e6f6e204552433732315265",
  "immutableReferences": {},
  "source": "// SPDX-License-Identifier: MIT\r\npragma solidity >=0.7.0 <0.9.0;\r\n\r\nimport \"@openzeppelin/contracts/token/ERC721/ERC721.sol\";\r\nimport \"@openzeppelin/contracts/access/Ownable.sol\";\r\nimport \"@openzeppelin/contracts/utils/Counters.sol\";\r\n\r\ncontract CoolPunks is ERC721, Ownable {\r\n    //Imports\r\n    using Strings for uint256;\r\n    using Counters for Counters.Counter;\r\n\r\n    //Token count \r\n    Counters.Counter private _tokenSupply;\r\n\r\n    //Token URI generation\r\n    string baseURI;\r\n    string public baseExtension = \".json\";\r\n\r\n    //Supply code\r\n    uint256 public constant MAX_SUPPLY = 4444;\r\n    \r\n\r\n    //Pausing functionality\r\n    bool public paused = true;\r\n\r\n    //--------------------------------------constructor--------------------------------------\r\n\r\n    constructor(\r\n        string memory _name,\r\n        string memory _symbol,\r\n        string memory _initBaseURI\r\n    ) ERC721 (_name, _symbol){\r\n        //Set base uri\r\n        baseURI = _initBaseURI;\r\n        \r\n        //Create 1 nft so that the collection gets listed on opensea\r\n        _safeMint(msg.sender, MintIndex());\r\n        _tokenSupply.increment();\r\n\r\n    }\r\n\r\n    //=========================================PUBLIC=========================================================\r\n    //------------------------------------------count functions---------------------------\r\n    //Index for the png's\r\n    function MintIndex() public view returns(uint256 index){\r\n        return _tokenSupply.current() + 1; // Start IDs at 1\r\n    }\r\n\r\n    // How many left\r\n    function remainingSupply() public view returns (uint256) {\r\n        return MAX_SUPPLY - tokenSupply();\r\n    }\r\n\r\n    // How many minted\r\n    function tokenSupply() public view returns (uint256) {\r\n        return _tokenSupply.current();\r\n    }\r\n\r\n    //-----------------------------------------Price and amount functions--------------------------------------\r\n    function Price() public view returns (uint256 _cost){\r\n        uint256 supply = tokenSupply();\r\n        if(supply < 444){ \r\n            return 0 ether;\r\n        }else{\r\n            return 0.02 ether;\r\n        }\r\n    } \r\n\r\n    function MaxMintAmount() public pure returns (uint256 _maxMintAmount){\r\n        return 10;\r\n    } \r\n\r\n    // --------------------------------------------------Minting functions---------------------------------------------------\r\n    function MintCoolPunks(uint256 _mintAmount) public payable {\r\n\r\n        uint256 mintIndex = MintIndex();\r\n\r\n        require(!paused, \"CoolPunks are paused!\");\r\n        require(_mintAmount > 0, \"Cant order negative number\");\r\n        require(mintIndex + _mintAmount <= MAX_SUPPLY, \"This order would exceed the max supply\");\r\n\r\n        require(_mintAmount <= MaxMintAmount(), \"This order exceeds max mint amount for the current stage\");\r\n        \r\n        require(msg.value >= Price() * _mintAmount, \"This order doesn't meet the price requirement for the current stage\");\r\n\r\n\r\n        for (uint256 i = 0; i < _mintAmount; i++){\r\n            _safeMint(msg.sender, mintIndex + i);\r\n            _tokenSupply.increment();\r\n        }\r\n    }\r\n\r\n    //------------------------------------------------------------Metadata---------------------------------------\r\n    //Generate uri for metadata\r\n    function tokenURI(uint256 tokenId)\r\n    public\r\n    view\r\n    virtual\r\n    override\r\n    returns (string memory)\r\n    {\r\n        require(\r\n            _exists(tokenId),\r\n            \"ERC721Metadata: URI query for nonexistent token\"\r\n        );\r\n\r\n        string memory currentBaseURI = _baseURI();\r\n        return bytes(currentBaseURI).length > 0\r\n            ? string(abi.encodePacked(currentBaseURI, tokenId.toString(), baseExtension))\r\n            : \"\";\r\n    }\r\n\r\n    //=========================================================PRIVATE and OWNER=====================================\r\n    //-------------------------------------------------------------------uri-------------------------------------------------------\r\n    //returns the base uri for URI generation\r\n    function _baseURI() internal view virtual override returns (string memory) {\r\n        return baseURI;\r\n    }\r\n\r\n    //Only Owner\r\n    function setBaseURI(string memory _newBaseURI) public onlyOwner {\r\n        baseURI = _newBaseURI;\r\n    }\r\n\r\n    //Pause the contract, if paused = true will not be able to mint\r\n    function pause(bool _state) public onlyOwner{\r\n        paused = _state;\r\n    }\r\n\r\n    //Withdraw money from minting\r\n    function withdraw() public payable onlyOwner {\r\n    (bool os, ) = payable(owner()).call{value: address(this).balance}(\"\");\r\n    require(os);\r\n  }\r\n}",
  "sourcePath": "C:\\Coding\\Repos\\coolPunksContract\\contracts\\coolPunks.sol",
  "compiler": {
    "name": "solc",
    "version": "0.8.11+commit.d7f03943.Emscripten.clang"
  },
  "schemaVersion": "3.4.4",
  "updatedAt": "2022-02-03T23:57:09.264Z",
  "networkType": "ethereum",
  "devdoc": {
    "kind": "dev",
    "methods": {
      "approve(address,uint256)": {
        "details": "See {IERC721-approve}."
      },
      "balanceOf(address)": {
        "details": "See {IERC721-balanceOf}."
      },
      "getApproved(uint256)": {
        "details": "See {IERC721-getApproved}."
      },
      "isApprovedForAll(address,address)": {
        "details": "See {IERC721-isApprovedForAll}."
      },
      "name()": {
        "details": "See {IERC721Metadata-name}."
      },
      "owner()": {
        "details": "Returns the address of the current owner."
      },
      "ownerOf(uint256)": {
        "details": "See {IERC721-ownerOf}."
      },
      "renounceOwnership()": {
        "details": "Leaves the contract without owner. It will not be possible to call `onlyOwner` functions anymore. Can only be called by the current owner. NOTE: Renouncing ownership will leave the contract without an owner, thereby removing any functionality that is only available to the owner."
      },
      "safeTransferFrom(address,address,uint256)": {
        "details": "See {IERC721-safeTransferFrom}."
      },
      "safeTransferFrom(address,address,uint256,bytes)": {
        "details": "See {IERC721-safeTransferFrom}."
      },
      "setApprovalForAll(address,bool)": {
        "details": "See {IERC721-setApprovalForAll}."
      },
      "supportsInterface(bytes4)": {
        "details": "See {IERC165-supportsInterface}."
      },
      "symbol()": {
        "details": "See {IERC721Metadata-symbol}."
      },
      "tokenURI(uint256)": {
        "details": "See {IERC721Metadata-tokenURI}."
      },
      "transferFrom(address,address,uint256)": {
        "details": "See {IERC721-transferFrom}."
      },
      "transferOwnership(address)": {
        "details": "Transfers ownership of the contract to a new account (`newOwner`). Can only be called by the current owner."
      }
    },
    "version": 1
  },
  "userdoc": {
    "kind": "user",
    "methods": {},
    "version": 1
  }
}