{
  "contractName": "FomoApes",
  "abi": [
    {
      "inputs": [
        {
          "internalType": "string",
          "name": "_name",
          "type": "string"
        },
        {
          "internalType": "string",
          "name": "_symbol",
          "type": "string"
        },
        {
          "internalType": "string",
          "name": "_initBaseURI",
          "type": "string"
        }
      ],
      "stateMutability": "nonpayable",
      "type": "constructor"
    },
    {
      "anonymous": false,
      "inputs": [
        {
          "indexed": true,
          "internalType": "address",
          "name": "owner",
          "type": "address"
        },
        {
          "indexed": true,
          "internalType": "address",
          "name": "approved",
          "type": "address"
        },
        {
          "indexed": true,
          "internalType": "uint256",
          "name": "tokenId",
          "type": "uint256"
        }
      ],
      "name": "Approval",
      "type": "event"
    },
    {
      "anonymous": false,
      "inputs": [
        {
          "indexed": true,
          "internalType": "address",
          "name": "owner",
          "type": "address"
        },
        {
          "indexed": true,
          "internalType": "address",
          "name": "operator",
          "type": "address"
        },
        {
          "indexed": false,
          "internalType": "bool",
          "name": "approved",
          "type": "bool"
        }
      ],
      "name": "ApprovalForAll",
      "type": "event"
    },
    {
      "anonymous": false,
      "inputs": [
        {
          "indexed": true,
          "internalType": "address",
          "name": "previousOwner",
          "type": "address"
        },
        {
          "indexed": true,
          "internalType": "address",
          "name": "newOwner",
          "type": "address"
        }
      ],
      "name": "OwnershipTransferred",
      "type": "event"
    },
    {
      "anonymous": false,
      "inputs": [
        {
          "indexed": true,
          "internalType": "address",
          "name": "from",
          "type": "address"
        },
        {
          "indexed": true,
          "internalType": "address",
          "name": "to",
          "type": "address"
        },
        {
          "indexed": true,
          "internalType": "uint256",
          "name": "tokenId",
          "type": "uint256"
        }
      ],
      "name": "Transfer",
      "type": "event"
    },
    {
      "inputs": [],
      "name": "MAX_SUPPLY",
      "outputs": [
        {
          "internalType": "uint256",
          "name": "",
          "type": "uint256"
        }
      ],
      "stateMutability": "view",
      "type": "function",
      "constant": true
    },
    {
      "inputs": [],
      "name": "adminMintCompleted",
      "outputs": [
        {
          "internalType": "bool",
          "name": "",
          "type": "bool"
        }
      ],
      "stateMutability": "view",
      "type": "function",
      "constant": true
    },
    {
      "inputs": [],
      "name": "adminMintSize",
      "outputs": [
        {
          "internalType": "uint256",
          "name": "",
          "type": "uint256"
        }
      ],
      "stateMutability": "view",
      "type": "function",
      "constant": true
    },
    {
      "inputs": [
        {
          "internalType": "address",
          "name": "to",
          "type": "address"
        },
        {
          "internalType": "uint256",
          "name": "tokenId",
          "type": "uint256"
        }
      ],
      "name": "approve",
      "outputs": [],
      "stateMutability": "nonpayable",
      "type": "function"
    },
    {
      "inputs": [
        {
          "internalType": "address",
          "name": "owner",
          "type": "address"
        }
      ],
      "name": "balanceOf",
      "outputs": [
        {
          "internalType": "uint256",
          "name": "",
          "type": "uint256"
        }
      ],
      "stateMutability": "view",
      "type": "function",
      "constant": true
    },
    {
      "inputs": [],
      "name": "baseExtension",
      "outputs": [
        {
          "internalType": "string",
          "name": "",
          "type": "string"
        }
      ],
      "stateMutability": "view",
      "type": "function",
      "constant": true
    },
    {
      "inputs": [
        {
          "internalType": "uint256",
          "name": "tokenId",
          "type": "uint256"
        }
      ],
      "name": "getApproved",
      "outputs": [
        {
          "internalType": "address",
          "name": "",
          "type": "address"
        }
      ],
      "stateMutability": "view",
      "type": "function",
      "constant": true
    },
    {
      "inputs": [
        {
          "internalType": "address",
          "name": "owner",
          "type": "address"
        },
        {
          "internalType": "address",
          "name": "operator",
          "type": "address"
        }
      ],
      "name": "isApprovedForAll",
      "outputs": [
        {
          "internalType": "bool",
          "name": "",
          "type": "bool"
        }
      ],
      "stateMutability": "view",
      "type": "function",
      "constant": true
    },
    {
      "inputs": [],
      "name": "name",
      "outputs": [
        {
          "internalType": "string",
          "name": "",
          "type": "string"
        }
      ],
      "stateMutability": "view",
      "type": "function",
      "constant": true
    },
    {
      "inputs": [],
      "name": "owner",
      "outputs": [
        {
          "internalType": "address",
          "name": "",
          "type": "address"
        }
      ],
      "stateMutability": "view",
      "type": "function",
      "constant": true
    },
    {
      "inputs": [
        {
          "internalType": "uint256",
          "name": "tokenId",
          "type": "uint256"
        }
      ],
      "name": "ownerOf",
      "outputs": [
        {
          "internalType": "address",
          "name": "",
          "type": "address"
        }
      ],
      "stateMutability": "view",
      "type": "function",
      "constant": true
    },
    {
      "inputs": [],
      "name": "paused",
      "outputs": [
        {
          "internalType": "bool",
          "name": "",
          "type": "bool"
        }
      ],
      "stateMutability": "view",
      "type": "function",
      "constant": true
    },
    {
      "inputs": [],
      "name": "renounceOwnership",
      "outputs": [],
      "stateMutability": "nonpayable",
      "type": "function"
    },
    {
      "inputs": [
        {
          "internalType": "address",
          "name": "from",
          "type": "address"
        },
        {
          "internalType": "address",
          "name": "to",
          "type": "address"
        },
        {
          "internalType": "uint256",
          "name": "tokenId",
          "type": "uint256"
        }
      ],
      "name": "safeTransferFrom",
      "outputs": [],
      "stateMutability": "nonpayable",
      "type": "function"
    },
    {
      "inputs": [
        {
          "internalType": "address",
          "name": "from",
          "type": "address"
        },
        {
          "internalType": "address",
          "name": "to",
          "type": "address"
        },
        {
          "internalType": "uint256",
          "name": "tokenId",
          "type": "uint256"
        },
        {
          "internalType": "bytes",
          "name": "_data",
          "type": "bytes"
        }
      ],
      "name": "safeTransferFrom",
      "outputs": [],
      "stateMutability": "nonpayable",
      "type": "function"
    },
    {
      "inputs": [
        {
          "internalType": "address",
          "name": "operator",
          "type": "address"
        },
        {
          "internalType": "bool",
          "name": "approved",
          "type": "bool"
        }
      ],
      "name": "setApprovalForAll",
      "outputs": [],
      "stateMutability": "nonpayable",
      "type": "function"
    },
    {
      "inputs": [
        {
          "internalType": "bytes4",
          "name": "interfaceId",
          "type": "bytes4"
        }
      ],
      "name": "supportsInterface",
      "outputs": [
        {
          "internalType": "bool",
          "name": "",
          "type": "bool"
        }
      ],
      "stateMutability": "view",
      "type": "function",
      "constant": true
    },
    {
      "inputs": [],
      "name": "symbol",
      "outputs": [
        {
          "internalType": "string",
          "name": "",
          "type": "string"
        }
      ],
      "stateMutability": "view",
      "type": "function",
      "constant": true
    },
    {
      "inputs": [
        {
          "internalType": "address",
          "name": "from",
          "type": "address"
        },
        {
          "internalType": "address",
          "name": "to",
          "type": "address"
        },
        {
          "internalType": "uint256",
          "name": "tokenId",
          "type": "uint256"
        }
      ],
      "name": "transferFrom",
      "outputs": [],
      "stateMutability": "nonpayable",
      "type": "function"
    },
    {
      "inputs": [
        {
          "internalType": "address",
          "name": "newOwner",
          "type": "address"
        }
      ],
      "name": "transferOwnership",
      "outputs": [],
      "stateMutability": "nonpayable",
      "type": "function"
    },
    {
      "inputs": [],
      "name": "MintIndex",
      "outputs": [
        {
          "internalType": "uint256",
          "name": "index",
          "type": "uint256"
        }
      ],
      "stateMutability": "view",
      "type": "function",
      "constant": true
    },
    {
      "inputs": [],
      "name": "remainingSupply",
      "outputs": [
        {
          "internalType": "uint256",
          "name": "",
          "type": "uint256"
        }
      ],
      "stateMutability": "view",
      "type": "function",
      "constant": true
    },
    {
      "inputs": [],
      "name": "tokenSupply",
      "outputs": [
        {
          "internalType": "uint256",
          "name": "",
          "type": "uint256"
        }
      ],
      "stateMutability": "view",
      "type": "function",
      "constant": true
    },
    {
      "inputs": [],
      "name": "Price",
      "outputs": [
        {
          "internalType": "uint256",
          "name": "_cost",
          "type": "uint256"
        }
      ],
      "stateMutability": "view",
      "type": "function",
      "constant": true
    },
    {
      "inputs": [],
      "name": "MaxMintAmount",
      "outputs": [
        {
          "internalType": "uint256",
          "name": "_maxMintAmount",
          "type": "uint256"
        }
      ],
      "stateMutability": "view",
      "type": "function",
      "constant": true
    },
    {
      "inputs": [
        {
          "internalType": "uint256",
          "name": "_mintAmount",
          "type": "uint256"
        }
      ],
      "name": "MintFomoApes",
      "outputs": [],
      "stateMutability": "payable",
      "type": "function",
      "payable": true
    },
    {
      "inputs": [],
      "name": "adminMint",
      "outputs": [],
      "stateMutability": "nonpayable",
      "type": "function"
    },
    {
      "inputs": [
        {
          "internalType": "uint256",
          "name": "tokenId",
          "type": "uint256"
        }
      ],
      "name": "tokenURI",
      "outputs": [
        {
          "internalType": "string",
          "name": "",
          "type": "string"
        }
      ],
      "stateMutability": "view",
      "type": "function",
      "constant": true
    },
    {
      "inputs": [
        {
          "internalType": "string",
          "name": "_newBaseURI",
          "type": "string"
        }
      ],
      "name": "setBaseURI",
      "outputs": [],
      "stateMutability": "nonpayable",
      "type": "function"
    },
    {
      "inputs": [
        {
          "internalType": "bool",
          "name": "_state",
          "type": "bool"
        }
      ],
      "name": "pause",
      "outputs": [],
      "stateMutability": "nonpayable",
      "type": "function"
    },
    {
      "inputs": [],
      "name": "withdraw",
      "outputs": [],
      "stateMutability": "payable",
      "type": "function",
      "payable": true
    }
  ],
  "bytecode": "0x60c06040526005608081905264173539b7b760d91b60a0908152620000289160099190620004db565b50601e600a55600b805461ffff19166101001790553480156200004a57600080fd5b506040516200289c3803806200289c8339810160408190526200006d916200065b565b82518390839062000086906000906020850190620004db565b5080516200009c906001906020840190620004db565b505050620000b9620000b36200010460201b60201c565b62000108565b8051620000ce906008906020840190620004db565b50620000e433620000de6200015a565b62000185565b620000fb6007620001ab60201b620011961760201c565b505050620007d9565b3390565b600680546001600160a01b038381166001600160a01b0319831681179093556040519116919082907f8be0079c531659141344cd1fd0a4f28419497f9722a3daafe3b4186f6b6457e090600090a35050565b6000620001736007620001b460201b6200119f1760201c565b62000180906001620006ec565b905090565b620001a7828260405180602001604052806000815250620001b860201b60201c565b5050565b80546001019055565b5490565b620001c4838362000234565b620001d360008484846200037c565b6200022f5760405162461bcd60e51b815260206004820152603260248201526000805160206200287c83398151915260448201527131b2b4bb32b91034b6b83632b6b2b73a32b960711b60648201526084015b60405180910390fd5b505050565b6001600160a01b0382166200028c5760405162461bcd60e51b815260206004820181905260248201527f4552433732313a206d696e7420746f20746865207a65726f2061646472657373604482015260640162000226565b6000818152600260205260409020546001600160a01b031615620002f35760405162461bcd60e51b815260206004820152601c60248201527f4552433732313a20746f6b656e20616c7265616479206d696e74656400000000604482015260640162000226565b6001600160a01b03821660009081526003602052604081208054600192906200031e908490620006ec565b909155505060008181526002602052604080822080546001600160a01b0319166001600160a01b03861690811790915590518392907fddf252ad1be2c89b69c2b068fc378daa952ba7f163c4a11628f55a4df523b3ef908290a45050565b60006200039d846001600160a01b0316620004d560201b620011a31760201c565b15620004c957604051630a85bd0160e11b81526001600160a01b0385169063150b7a0290620003d790339089908890889060040162000713565b6020604051808303816000875af192505050801562000415575060408051601f3d908101601f19168201909252620004129181019062000769565b60015b620004ae573d80801562000446576040519150601f19603f3d011682016040523d82523d6000602084013e6200044b565b606091505b508051620004a65760405162461bcd60e51b815260206004820152603260248201526000805160206200287c83398151915260448201527131b2b4bb32b91034b6b83632b6b2b73a32b960711b606482015260840162000226565b805181602001fd5b6001600160e01b031916630a85bd0160e11b149050620004cd565b5060015b949350505050565b3b151590565b828054620004e9906200079c565b90600052602060002090601f0160209004810192826200050d576000855562000558565b82601f106200052857805160ff191683800117855562000558565b8280016001018555821562000558579182015b82811115620005585782518255916020019190600101906200053b565b50620005669291506200056a565b5090565b5b808211156200056657600081556001016200056b565b634e487b7160e01b600052604160045260246000fd5b60005b83811015620005b45781810151838201526020016200059a565b83811115620005c4576000848401525b50505050565b600082601f830112620005dc57600080fd5b81516001600160401b0380821115620005f957620005f962000581565b604051601f8301601f19908116603f0116810190828211818310171562000624576200062462000581565b816040528381528660208588010111156200063e57600080fd5b6200065184602083016020890162000597565b9695505050505050565b6000806000606084860312156200067157600080fd5b83516001600160401b03808211156200068957600080fd5b6200069787838801620005ca565b94506020860151915080821115620006ae57600080fd5b620006bc87838801620005ca565b93506040860151915080821115620006d357600080fd5b50620006e286828701620005ca565b9150509250925092565b600082198211156200070e57634e487b7160e01b600052601160045260246000fd5b500190565b600060018060a01b038087168352808616602084015250836040830152608060608301528251806080840152620007528160a085016020870162000597565b601f01601f19169190910160a00195945050505050565b6000602082840312156200077c57600080fd5b81516001600160e01b0319811681146200079557600080fd5b9392505050565b600181811c90821680620007b157607f821691505b60208210811415620007d357634e487b7160e01b600052602260045260246000fd5b50919050565b61209380620007e96000396000f3fe6080604052600436106101d85760003560e01c8063715018a611610102578063a22cb46511610095578063caeeffdb11610064578063caeeffdb146104ed578063da0239a614610502578063e985e9c514610517578063f2fde38b1461056057600080fd5b8063a22cb46514610478578063b88d4fde14610498578063c6682862146104b8578063c87b56dd146104cd57600080fd5b8063895fc788116100d1578063895fc7881461041b5780638da5cb5b1461043057806395d89b411461044e5780639dfde2011461046357600080fd5b8063715018a6146103c45780637824407f146103d95780637f8a6f53146103ee578063809d5d8a1461040157600080fd5b806323b872dd1161017a57806355f804b31161014957806355f804b3146103455780635c975abb146103655780636352211e1461038457806370a08231146103a457600080fd5b806323b872dd146102e757806332cb6b0c146103075780633ccfd60b1461031d57806342842e0e1461032557600080fd5b806306fdde03116101b657806306fdde0314610257578063081812fc14610279578063095ea7b3146102b1578063143e45c8146102d157600080fd5b806301ffc9a7146101dd57806302329a291461021257806304d88f9814610234575b600080fd5b3480156101e957600080fd5b506101fd6101f8366004611a42565b610580565b60405190151581526020015b60405180910390f35b34801561021e57600080fd5b5061023261022d366004611a74565b6105d2565b005b34801561024057600080fd5b5061024961061f565b604051908152602001610209565b34801561026357600080fd5b5061026c61063a565b6040516102099190611ae7565b34801561028557600080fd5b50610299610294366004611afa565b6106cc565b6040516001600160a01b039091168152602001610209565b3480156102bd57600080fd5b506102326102cc366004611b2a565b610761565b3480156102dd57600080fd5b50610249600a5481565b3480156102f357600080fd5b50610232610302366004611b54565b610877565b34801561031357600080fd5b5061024961132481565b6102326108a8565b34801561033157600080fd5b50610232610340366004611b54565b610946565b34801561035157600080fd5b50610232610360366004611c1c565b610961565b34801561037157600080fd5b50600b546101fd90610100900460ff1681565b34801561039057600080fd5b5061029961039f366004611afa565b6109a2565b3480156103b057600080fd5b506102496103bf366004611c65565b610a19565b3480156103d057600080fd5b50610232610aa0565b3480156103e557600080fd5b50610249610ad6565b6102326103fc366004611afa565b610ae1565b34801561040d57600080fd5b50600b546101fd9060ff1681565b34801561042757600080fd5b50610232610d46565b34801561043c57600080fd5b506006546001600160a01b0316610299565b34801561045a57600080fd5b5061026c610e82565b34801561046f57600080fd5b50610249610e91565b34801561048457600080fd5b50610232610493366004611c80565b610ef0565b3480156104a457600080fd5b506102326104b3366004611cb3565b610efb565b3480156104c457600080fd5b5061026c610f33565b3480156104d957600080fd5b5061026c6104e8366004611afa565b610fc1565b3480156104f957600080fd5b5061024961109f565b34801561050e57600080fd5b506102496110e8565b34801561052357600080fd5b506101fd610532366004611d2f565b6001600160a01b03918216600090815260056020908152604080832093909416825291909152205460ff1690565b34801561056c57600080fd5b5061023261057b366004611c65565b6110fe565b60006001600160e01b031982166380ac58cd60e01b14806105b157506001600160e01b03198216635b5e139f60e01b145b806105cc57506301ffc9a760e01b6001600160e01b03198316145b92915050565b6006546001600160a01b031633146106055760405162461bcd60e51b81526004016105fc90611d59565b60405180910390fd5b600b80549115156101000261ff0019909216919091179055565b600061062a60075490565b610635906001611da4565b905090565b60606000805461064990611dbc565b80601f016020809104026020016040519081016040528092919081815260200182805461067590611dbc565b80156106c25780601f10610697576101008083540402835291602001916106c2565b820191906000526020600020905b8154815290600101906020018083116106a557829003601f168201915b5050505050905090565b6000818152600260205260408120546001600160a01b03166107455760405162461bcd60e51b815260206004820152602c60248201527f4552433732313a20617070726f76656420717565727920666f72206e6f6e657860448201526b34b9ba32b73a103a37b5b2b760a11b60648201526084016105fc565b506000908152600460205260409020546001600160a01b031690565b600061076c826109a2565b9050806001600160a01b0316836001600160a01b031614156107da5760405162461bcd60e51b815260206004820152602160248201527f4552433732313a20617070726f76616c20746f2063757272656e74206f776e656044820152603960f91b60648201526084016105fc565b336001600160a01b03821614806107f657506107f68133610532565b6108685760405162461bcd60e51b815260206004820152603860248201527f4552433732313a20617070726f76652063616c6c6572206973206e6f74206f7760448201527f6e6572206e6f7220617070726f76656420666f7220616c6c000000000000000060648201526084016105fc565b61087283836111a9565b505050565b6108813382611217565b61089d5760405162461bcd60e51b81526004016105fc90611df7565b61087283838361130e565b6006546001600160a01b031633146108d25760405162461bcd60e51b81526004016105fc90611d59565b60006108e66006546001600160a01b031690565b6001600160a01b03164760405160006040518083038185875af1925050503d8060008114610930576040519150601f19603f3d011682016040523d82523d6000602084013e610935565b606091505b505090508061094357600080fd5b50565b61087283838360405180602001604052806000815250610efb565b6006546001600160a01b0316331461098b5760405162461bcd60e51b81526004016105fc90611d59565b805161099e90600890602084019061199c565b5050565b6000818152600260205260408120546001600160a01b0316806105cc5760405162461bcd60e51b815260206004820152602960248201527f4552433732313a206f776e657220717565727920666f72206e6f6e657869737460448201526832b73a103a37b5b2b760b91b60648201526084016105fc565b60006001600160a01b038216610a845760405162461bcd60e51b815260206004820152602a60248201527f4552433732313a2062616c616e636520717565727920666f7220746865207a65604482015269726f206164647265737360b01b60648201526084016105fc565b506001600160a01b031660009081526003602052604090205490565b6006546001600160a01b03163314610aca5760405162461bcd60e51b81526004016105fc90611d59565b610ad460006114ae565b565b600061063560075490565b6000610aeb61061f565b600b54909150610100900460ff1615610b3d5760405162461bcd60e51b8152602060048201526014602482015273466f6d6f4170657320617265207061757365642160601b60448201526064016105fc565b60008211610b8d5760405162461bcd60e51b815260206004820152601a60248201527f43616e74206f72646572206e65676174697665206e756d62657200000000000060448201526064016105fc565b611324610b9a8383611da4565b1115610bf75760405162461bcd60e51b815260206004820152602660248201527f54686973206f7264657220776f756c642065786365656420746865206d617820604482015265737570706c7960d01b60648201526084016105fc565b610bff61109f565b821115610c745760405162461bcd60e51b815260206004820152603860248201527f54686973206f726465722065786365656473206d6178206d696e7420616d6f7560448201527f6e7420666f72207468652063757272656e74207374616765000000000000000060648201526084016105fc565b81610c7d610e91565b610c879190611e48565b341015610d085760405162461bcd60e51b815260206004820152604360248201527f54686973206f7264657220646f65736e2774206d65657420746865207072696360448201527f6520726571756972656d656e7420666f72207468652063757272656e7420737460648201526261676560e81b608482015260a4016105fc565b60005b8281101561087257610d2633610d218385611da4565b611500565b610d34600780546001019055565b80610d3e81611e67565b915050610d0b565b6006546001600160a01b03163314610d705760405162461bcd60e51b81526004016105fc90611d59565b6000610d7a61061f565b600b5490915060ff1615610dde5760405162461bcd60e51b815260206004820152602560248201527f5374616666206f726465722068617320616c7265616479206265656e20667566604482015264199a5b195960da1b60648201526084016105fc565b600a54610de96110e8565b11610e365760405162461bcd60e51b815260206004820152601860248201527f4e6f7420656e6f75676820746f6b656e732072656d61696e000000000000000060448201526064016105fc565b60005b600a54811015610e7157610e5133610d218385611da4565b610e5f600780546001019055565b80610e6981611e67565b915050610e39565b5050600b805460ff19166001179055565b60606001805461064990611dbc565b600080610e9c610ad6565b90506032811015610eaf57600091505090565b60c8811015610ec657662386f26fc1000091505090565b6102bc811015610ede5766470de4df82000091505090565b666a94d74f43000091505090565b5090565b61099e33838361151a565b610f053383611217565b610f215760405162461bcd60e51b81526004016105fc90611df7565b610f2d848484846115e9565b50505050565b60098054610f4090611dbc565b80601f0160208091040260200160405190810160405280929190818152602001828054610f6c90611dbc565b8015610fb95780601f10610f8e57610100808354040283529160200191610fb9565b820191906000526020600020905b815481529060010190602001808311610f9c57829003601f168201915b505050505081565b6000818152600260205260409020546060906001600160a01b03166110405760405162461bcd60e51b815260206004820152602f60248201527f4552433732314d657461646174613a2055524920717565727920666f72206e6f60448201526e3732bc34b9ba32b73a103a37b5b2b760891b60648201526084016105fc565b600061104a61161c565b9050600081511161106a5760405180602001604052806000815250611098565b806110748461162b565b600960405160200161108893929190611e82565b6040516020818303038152906040525b9392505050565b6000806110aa610ad6565b905060328110156110bd57600191505090565b60c88110156110ce57600391505090565b6102bc8110156110e057600591505090565b600a91505090565b60006110f2610ad6565b61063590611324611f46565b6006546001600160a01b031633146111285760405162461bcd60e51b81526004016105fc90611d59565b6001600160a01b03811661118d5760405162461bcd60e51b815260206004820152602660248201527f4f776e61626c653a206e6577206f776e657220697320746865207a65726f206160448201526564647265737360d01b60648201526084016105fc565b610943816114ae565b80546001019055565b5490565b3b151590565b600081815260046020526040902080546001600160a01b0319166001600160a01b03841690811790915581906111de826109a2565b6001600160a01b03167f8c5be1e5ebec7d5bd14f71427d1e84f3dd0314c0f7b2291e5b200ac8c7c3b92560405160405180910390a45050565b6000818152600260205260408120546001600160a01b03166112905760405162461bcd60e51b815260206004820152602c60248201527f4552433732313a206f70657261746f7220717565727920666f72206e6f6e657860448201526b34b9ba32b73a103a37b5b2b760a11b60648201526084016105fc565b600061129b836109a2565b9050806001600160a01b0316846001600160a01b031614806112d65750836001600160a01b03166112cb846106cc565b6001600160a01b0316145b8061130657506001600160a01b0380821660009081526005602090815260408083209388168352929052205460ff165b949350505050565b826001600160a01b0316611321826109a2565b6001600160a01b0316146113895760405162461bcd60e51b815260206004820152602960248201527f4552433732313a207472616e73666572206f6620746f6b656e2074686174206960448201526839903737ba1037bbb760b91b60648201526084016105fc565b6001600160a01b0382166113eb5760405162461bcd60e51b8152602060048201526024808201527f4552433732313a207472616e7366657220746f20746865207a65726f206164646044820152637265737360e01b60648201526084016105fc565b6113f66000826111a9565b6001600160a01b038316600090815260036020526040812080546001929061141f908490611f46565b90915550506001600160a01b038216600090815260036020526040812080546001929061144d908490611da4565b909155505060008181526002602052604080822080546001600160a01b0319166001600160a01b0386811691821790925591518493918716917fddf252ad1be2c89b69c2b068fc378daa952ba7f163c4a11628f55a4df523b3ef91a4505050565b600680546001600160a01b038381166001600160a01b0319831681179093556040519116919082907f8be0079c531659141344cd1fd0a4f28419497f9722a3daafe3b4186f6b6457e090600090a35050565b61099e828260405180602001604052806000815250611729565b816001600160a01b0316836001600160a01b0316141561157c5760405162461bcd60e51b815260206004820152601960248201527f4552433732313a20617070726f766520746f2063616c6c65720000000000000060448201526064016105fc565b6001600160a01b03838116600081815260056020908152604080832094871680845294825291829020805460ff191686151590811790915591519182527f17307eab39ab6107e8899845ad3d59bd9653f200f220920489ca2b5937696c31910160405180910390a3505050565b6115f484848461130e565b6116008484848461175c565b610f2d5760405162461bcd60e51b81526004016105fc90611f5d565b60606008805461064990611dbc565b60608161164f5750506040805180820190915260018152600360fc1b602082015290565b8160005b8115611679578061166381611e67565b91506116729050600a83611fc5565b9150611653565b60008167ffffffffffffffff81111561169457611694611b90565b6040519080825280601f01601f1916602001820160405280156116be576020820181803683370190505b5090505b8415611306576116d3600183611f46565b91506116e0600a86611fd9565b6116eb906030611da4565b60f81b81838151811061170057611700611fed565b60200101906001600160f81b031916908160001a905350611722600a86611fc5565b94506116c2565b611733838361185a565b611740600084848461175c565b6108725760405162461bcd60e51b81526004016105fc90611f5d565b60006001600160a01b0384163b1561184f57604051630a85bd0160e11b81526001600160a01b0385169063150b7a02906117a0903390899088908890600401612003565b6020604051808303816000875af19250505080156117db575060408051601f3d908101601f191682019092526117d891810190612040565b60015b611835573d808015611809576040519150601f19603f3d011682016040523d82523d6000602084013e61180e565b606091505b50805161182d5760405162461bcd60e51b81526004016105fc90611f5d565b805181602001fd5b6001600160e01b031916630a85bd0160e11b149050611306565b506001949350505050565b6001600160a01b0382166118b05760405162461bcd60e51b815260206004820181905260248201527f4552433732313a206d696e7420746f20746865207a65726f206164647265737360448201526064016105fc565b6000818152600260205260409020546001600160a01b0316156119155760405162461bcd60e51b815260206004820152601c60248201527f4552433732313a20746f6b656e20616c7265616479206d696e7465640000000060448201526064016105fc565b6001600160a01b038216600090815260036020526040812080546001929061193e908490611da4565b909155505060008181526002602052604080822080546001600160a01b0319166001600160a01b03861690811790915590518392907fddf252ad1be2c89b69c2b068fc378daa952ba7f163c4a11628f55a4df523b3ef908290a45050565b8280546119a890611dbc565b90600052602060002090601f0160209004810192826119ca5760008555611a10565b82601f106119e357805160ff1916838001178555611a10565b82800160010185558215611a10579182015b82811115611a105782518255916020019190600101906119f5565b50610eec9291505b80821115610eec5760008155600101611a18565b6001600160e01b03198116811461094357600080fd5b600060208284031215611a5457600080fd5b813561109881611a2c565b80358015158114611a6f57600080fd5b919050565b600060208284031215611a8657600080fd5b61109882611a5f565b60005b83811015611aaa578181015183820152602001611a92565b83811115610f2d5750506000910152565b60008151808452611ad3816020860160208601611a8f565b601f01601f19169290920160200192915050565b6020815260006110986020830184611abb565b600060208284031215611b0c57600080fd5b5035919050565b80356001600160a01b0381168114611a6f57600080fd5b60008060408385031215611b3d57600080fd5b611b4683611b13565b946020939093013593505050565b600080600060608486031215611b6957600080fd5b611b7284611b13565b9250611b8060208501611b13565b9150604084013590509250925092565b634e487b7160e01b600052604160045260246000fd5b600067ffffffffffffffff80841115611bc157611bc1611b90565b604051601f8501601f19908116603f01168101908282118183101715611be957611be9611b90565b81604052809350858152868686011115611c0257600080fd5b858560208301376000602087830101525050509392505050565b600060208284031215611c2e57600080fd5b813567ffffffffffffffff811115611c4557600080fd5b8201601f81018413611c5657600080fd5b61130684823560208401611ba6565b600060208284031215611c7757600080fd5b61109882611b13565b60008060408385031215611c9357600080fd5b611c9c83611b13565b9150611caa60208401611a5f565b90509250929050565b60008060008060808587031215611cc957600080fd5b611cd285611b13565b9350611ce060208601611b13565b925060408501359150606085013567ffffffffffffffff811115611d0357600080fd5b8501601f81018713611d1457600080fd5b611d2387823560208401611ba6565b91505092959194509250565b60008060408385031215611d4257600080fd5b611d4b83611b13565b9150611caa60208401611b13565b6020808252818101527f4f776e61626c653a2063616c6c6572206973206e6f7420746865206f776e6572604082015260600190565b634e487b7160e01b600052601160045260246000fd5b60008219821115611db757611db7611d8e565b500190565b600181811c90821680611dd057607f821691505b60208210811415611df157634e487b7160e01b600052602260045260246000fd5b50919050565b60208082526031908201527f4552433732313a207472616e736665722063616c6c6572206973206e6f74206f6040820152701ddb995c881b9bdc88185c1c1c9bdd9959607a1b606082015260800190565b6000816000190483118215151615611e6257611e62611d8e565b500290565b6000600019821415611e7b57611e7b611d8e565b5060010190565b600084516020611e958285838a01611a8f565b855191840191611ea88184848a01611a8f565b8554920191600090600181811c9080831680611ec557607f831692505b858310811415611ee357634e487b7160e01b85526022600452602485fd5b808015611ef75760018114611f0857611f35565b60ff19851688528388019550611f35565b60008b81526020902060005b85811015611f2d5781548a820152908401908801611f14565b505083880195505b50939b9a5050505050505050505050565b600082821015611f5857611f58611d8e565b500390565b60208082526032908201527f4552433732313a207472616e7366657220746f206e6f6e20455243373231526560408201527131b2b4bb32b91034b6b83632b6b2b73a32b960711b606082015260800190565b634e487b7160e01b600052601260045260246000fd5b600082611fd457611fd4611faf565b500490565b600082611fe857611fe8611faf565b500690565b634e487b7160e01b600052603260045260246000fd5b6001600160a01b038581168252841660208201526040810183905260806060820181905260009061203690830184611abb565b9695505050505050565b60006020828403121561205257600080fd5b815161109881611a2c56fea2646970667358221220f60b5018dacac4a206aa7f71b9d822a89a07da67b3098a107388029db6ec0e4d64736f6c634300080b00334552433732313a207472616e7366657220746f206e6f6e204552433732315265",
  "immutableReferences": {},
  "source": "// SPDX-License-Identifier: MIT\r\npragma solidity >=0.7.0 <0.9.0;\r\n\r\nimport \"@openzeppelin/contracts/token/ERC721/ERC721.sol\";\r\nimport \"@openzeppelin/contracts/access/Ownable.sol\";\r\nimport \"@openzeppelin/contracts/utils/Counters.sol\";\r\n\r\ncontract FomoApes is ERC721, Ownable {\r\n    //Imports\r\n    using Strings for uint256;\r\n    using Counters for Counters.Counter;\r\n\r\n    //Token count \r\n    Counters.Counter private _tokenSupply;\r\n\r\n    //Token URI generation\r\n    string baseURI;\r\n    string public baseExtension = \".json\";\r\n\r\n    //Admin mint\r\n    uint256 public adminMintSize = 30;\r\n    bool public adminMintCompleted = false;\r\n\r\n    //Supply code\r\n    uint256 public constant MAX_SUPPLY = 4900;\r\n\r\n    //Pausing functionality\r\n    bool public paused = true;\r\n\r\n    //--------------------------------------constructor--------------------------------------\r\n\r\n    constructor(\r\n        string memory _name,\r\n        string memory _symbol,\r\n        string memory _initBaseURI\r\n    ) ERC721 (_name, _symbol){\r\n        //Set base uri\r\n        baseURI = _initBaseURI;\r\n        \r\n        //Create 1 nft so that the collection gets listed on opensea\r\n        _safeMint(msg.sender, MintIndex());\r\n        _tokenSupply.increment();\r\n\r\n    }\r\n\r\n    //=========================================PUBLIC=========================================================\r\n    //------------------------------------------count functions---------------------------\r\n    //Index for the png's\r\n    function MintIndex() public view returns(uint256 index){\r\n        return _tokenSupply.current() + 1; // Start IDs at 1\r\n    }\r\n\r\n    // How many left\r\n    function remainingSupply() public view returns (uint256) {\r\n        return MAX_SUPPLY - tokenSupply();\r\n    }\r\n\r\n    // How many minted\r\n    function tokenSupply() public view returns (uint256) {\r\n        return _tokenSupply.current();\r\n    }\r\n\r\n    //-----------------------------------------Price and amount functions--------------------------------------\r\n    function Price() public view returns (uint256 _cost){\r\n        uint256 supply = tokenSupply();\r\n        if(supply < 50){ \r\n            return 0 ether;\r\n        }else if (supply < 200) { \r\n            return 0.01 ether;\r\n        }else if (supply < 700){\r\n            return 0.02 ether;\r\n        }else{\r\n            return 0.03 ether;\r\n        }\r\n    } \r\n\r\n    function MaxMintAmount() public view returns (uint256 _maxMintAmount){\r\n    uint256 supply = tokenSupply();\r\n        if(supply < 50){\r\n            return 1;\r\n        }else if (supply < 200) {\r\n            return 3;\r\n        }else if (supply < 700){\r\n            return 5;\r\n        }else{\r\n            return 10;\r\n        }\r\n    } \r\n\r\n    // --------------------------------------------------Minting functions---------------------------------------------------\r\n    function MintFomoApes(uint256 _mintAmount) public payable {\r\n\r\n        uint256 mintIndex = MintIndex();\r\n\r\n        require(!paused, \"FomoApes are paused!\");\r\n        require(_mintAmount > 0, \"Cant order negative number\");\r\n        require(mintIndex + _mintAmount <= MAX_SUPPLY, \"This order would exceed the max supply\");\r\n\r\n        require(_mintAmount <= MaxMintAmount(), \"This order exceeds max mint amount for the current stage\");\r\n        require(msg.value >= Price() * _mintAmount, \"This order doesn't meet the price requirement for the current stage\");\r\n\r\n\r\n        for (uint256 i = 0; i < _mintAmount; i++){\r\n            _safeMint(msg.sender, mintIndex + i);\r\n            _tokenSupply.increment();\r\n        }\r\n    }\r\n\r\n    //Staff access 30 (must get before sold out)\r\n    function adminMint() public onlyOwner {\r\n        uint256 mintIndex = MintIndex();\r\n\r\n        require(!adminMintCompleted, \"Staff order has already been fuffiled\"); \r\n        require(remainingSupply() > adminMintSize, \"Not enough tokens remain\");\r\n\r\n        for (uint256 i = 0; i < adminMintSize; i++) { \r\n            _safeMint(msg.sender, mintIndex + i);\r\n            _tokenSupply.increment();\r\n        }\r\n        adminMintCompleted = true;\r\n    }\r\n\r\n    //------------------------------------------------------------Metadata---------------------------------------\r\n    //Generate uri for metadata\r\n    function tokenURI(uint256 tokenId)\r\n    public\r\n    view\r\n    virtual\r\n    override\r\n    returns (string memory)\r\n    {\r\n        require(\r\n            _exists(tokenId),\r\n            \"ERC721Metadata: URI query for nonexistent token\"\r\n        );\r\n\r\n        string memory currentBaseURI = _baseURI();\r\n        return bytes(currentBaseURI).length > 0\r\n            ? string(abi.encodePacked(currentBaseURI, tokenId.toString(), baseExtension))\r\n            : \"\";\r\n    }\r\n\r\n    //=========================================================PRIVATE and OWNER=====================================\r\n    //-------------------------------------------------------------------uri-------------------------------------------------------\r\n    //returns the base uri for URI generation\r\n    function _baseURI() internal view virtual override returns (string memory) {\r\n        return baseURI;\r\n    }\r\n\r\n    //Only Owner\r\n    function setBaseURI(string memory _newBaseURI) public onlyOwner {\r\n        baseURI = _newBaseURI;\r\n    }\r\n\r\n    //Pause the contract, if paused = true will not be able to mint\r\n    function pause(bool _state) public onlyOwner{\r\n        paused = _state;\r\n    }\r\n\r\n    //Withdraw money from minting\r\n    function withdraw() public payable onlyOwner {\r\n    (bool os, ) = payable(owner()).call{value: address(this).balance}(\"\");\r\n    require(os);\r\n  }\r\n}",
  "sourcePath": "C:\\Coding\\Repos\\FOMOapes\\contracts\\FomoApes.sol",
  "compiler": {
    "name": "solc",
    "version": "0.8.11+commit.d7f03943.Emscripten.clang"
  },
  "schemaVersion": "3.4.4",
  "updatedAt": "2022-01-29T13:16:16.000Z",
  "networkType": "ethereum",
  "devdoc": {
    "kind": "dev",
    "methods": {
      "approve(address,uint256)": {
        "details": "See {IERC721-approve}."
      },
      "balanceOf(address)": {
        "details": "See {IERC721-balanceOf}."
      },
      "getApproved(uint256)": {
        "details": "See {IERC721-getApproved}."
      },
      "isApprovedForAll(address,address)": {
        "details": "See {IERC721-isApprovedForAll}."
      },
      "name()": {
        "details": "See {IERC721Metadata-name}."
      },
      "owner()": {
        "details": "Returns the address of the current owner."
      },
      "ownerOf(uint256)": {
        "details": "See {IERC721-ownerOf}."
      },
      "renounceOwnership()": {
        "details": "Leaves the contract without owner. It will not be possible to call `onlyOwner` functions anymore. Can only be called by the current owner. NOTE: Renouncing ownership will leave the contract without an owner, thereby removing any functionality that is only available to the owner."
      },
      "safeTransferFrom(address,address,uint256)": {
        "details": "See {IERC721-safeTransferFrom}."
      },
      "safeTransferFrom(address,address,uint256,bytes)": {
        "details": "See {IERC721-safeTransferFrom}."
      },
      "setApprovalForAll(address,bool)": {
        "details": "See {IERC721-setApprovalForAll}."
      },
      "supportsInterface(bytes4)": {
        "details": "See {IERC165-supportsInterface}."
      },
      "symbol()": {
        "details": "See {IERC721Metadata-symbol}."
      },
      "tokenURI(uint256)": {
        "details": "See {IERC721Metadata-tokenURI}."
      },
      "transferFrom(address,address,uint256)": {
        "details": "See {IERC721-transferFrom}."
      },
      "transferOwnership(address)": {
        "details": "Transfers ownership of the contract to a new account (`newOwner`). Can only be called by the current owner."
      }
    },
    "version": 1
  },
  "userdoc": {
    "kind": "user",
    "methods": {},
    "version": 1
  }
}